{
  "_format": "hh3-artifact-1",
  "contractName": "Tanda",
  "sourceName": "contracts/Tanda.sol",
  "abi": [
    {
      "inputs": [
        {
          "internalType": "address",
          "name": "_usdcToken",
          "type": "address"
        },
        {
          "internalType": "address[]",
          "name": "_initialParticipants",
          "type": "address[]"
        },
        {
          "internalType": "uint256",
          "name": "_paymentAmount",
          "type": "uint256"
        },
        {
          "internalType": "uint256",
          "name": "_paymentFrequency",
          "type": "uint256"
        }
      ],
      "stateMutability": "nonpayable",
      "type": "constructor"
    },
    {
      "anonymous": false,
      "inputs": [
        {
          "indexed": true,
          "internalType": "address",
          "name": "recipient",
          "type": "address"
        },
        {
          "indexed": false,
          "internalType": "uint256",
          "name": "amount",
          "type": "uint256"
        },
        {
          "indexed": false,
          "internalType": "uint256",
          "name": "cycle",
          "type": "uint256"
        }
      ],
      "name": "FundsClaimed",
      "type": "event"
    },
    {
      "anonymous": false,
      "inputs": [
        {
          "indexed": false,
          "internalType": "uint256",
          "name": "cycleNumber",
          "type": "uint256"
        }
      ],
      "name": "NewCycleStarted",
      "type": "event"
    },
    {
      "anonymous": false,
      "inputs": [
        {
          "indexed": true,
          "internalType": "address",
          "name": "participant",
          "type": "address"
        }
      ],
      "name": "ParticipantAdded",
      "type": "event"
    },
    {
      "anonymous": false,
      "inputs": [
        {
          "indexed": true,
          "internalType": "address",
          "name": "participant",
          "type": "address"
        }
      ],
      "name": "ParticipantRemoved",
      "type": "event"
    },
    {
      "anonymous": false,
      "inputs": [
        {
          "indexed": true,
          "internalType": "address",
          "name": "payer",
          "type": "address"
        },
        {
          "indexed": false,
          "internalType": "uint256",
          "name": "amount",
          "type": "uint256"
        },
        {
          "indexed": false,
          "internalType": "uint256",
          "name": "cycle",
          "type": "uint256"
        }
      ],
      "name": "PaymentReceived",
      "type": "event"
    },
    {
      "inputs": [
        {
          "internalType": "address",
          "name": "_participant",
          "type": "address"
        }
      ],
      "name": "addParticipant",
      "outputs": [],
      "stateMutability": "nonpayable",
      "type": "function"
    },
    {
      "inputs": [],
      "name": "allHavePaid",
      "outputs": [
        {
          "internalType": "bool",
          "name": "",
          "type": "bool"
        }
      ],
      "stateMutability": "view",
      "type": "function"
    },
    {
      "inputs": [],
      "name": "claim",
      "outputs": [],
      "stateMutability": "nonpayable",
      "type": "function"
    },
    {
      "inputs": [],
      "name": "currentRecipientIndex",
      "outputs": [
        {
          "internalType": "uint256",
          "name": "",
          "type": "uint256"
        }
      ],
      "stateMutability": "view",
      "type": "function"
    },
    {
      "inputs": [],
      "name": "cycleNumber",
      "outputs": [
        {
          "internalType": "uint256",
          "name": "",
          "type": "uint256"
        }
      ],
      "stateMutability": "view",
      "type": "function"
    },
    {
      "inputs": [],
      "name": "cycleStartTime",
      "outputs": [
        {
          "internalType": "uint256",
          "name": "",
          "type": "uint256"
        }
      ],
      "stateMutability": "view",
      "type": "function"
    },
    {
      "inputs": [],
      "name": "getCurrentRecipient",
      "outputs": [
        {
          "internalType": "address",
          "name": "",
          "type": "address"
        }
      ],
      "stateMutability": "view",
      "type": "function"
    },
    {
      "inputs": [],
      "name": "getParticipants",
      "outputs": [
        {
          "internalType": "address[]",
          "name": "",
          "type": "address[]"
        }
      ],
      "stateMutability": "view",
      "type": "function"
    },
    {
      "inputs": [],
      "name": "getUnpaidParticipants",
      "outputs": [
        {
          "internalType": "address[]",
          "name": "",
          "type": "address[]"
        }
      ],
      "stateMutability": "view",
      "type": "function"
    },
    {
      "inputs": [],
      "name": "getVaultBalance",
      "outputs": [
        {
          "internalType": "uint256",
          "name": "",
          "type": "uint256"
        }
      ],
      "stateMutability": "view",
      "type": "function"
    },
    {
      "inputs": [
        {
          "internalType": "address",
          "name": "",
          "type": "address"
        }
      ],
      "name": "hasPaidThisCycle",
      "outputs": [
        {
          "internalType": "bool",
          "name": "",
          "type": "bool"
        }
      ],
      "stateMutability": "view",
      "type": "function"
    },
    {
      "inputs": [
        {
          "internalType": "address",
          "name": "",
          "type": "address"
        }
      ],
      "name": "isParticipant",
      "outputs": [
        {
          "internalType": "bool",
          "name": "",
          "type": "bool"
        }
      ],
      "stateMutability": "view",
      "type": "function"
    },
    {
      "inputs": [
        {
          "internalType": "uint256",
          "name": "",
          "type": "uint256"
        }
      ],
      "name": "participants",
      "outputs": [
        {
          "internalType": "address",
          "name": "",
          "type": "address"
        }
      ],
      "stateMutability": "view",
      "type": "function"
    },
    {
      "inputs": [],
      "name": "pay",
      "outputs": [],
      "stateMutability": "nonpayable",
      "type": "function"
    },
    {
      "inputs": [],
      "name": "paymentAmount",
      "outputs": [
        {
          "internalType": "uint256",
          "name": "",
          "type": "uint256"
        }
      ],
      "stateMutability": "view",
      "type": "function"
    },
    {
      "inputs": [],
      "name": "paymentFrequency",
      "outputs": [
        {
          "internalType": "uint256",
          "name": "",
          "type": "uint256"
        }
      ],
      "stateMutability": "view",
      "type": "function"
    },
    {
      "inputs": [
        {
          "internalType": "address",
          "name": "_participant",
          "type": "address"
        }
      ],
      "name": "removeParticipant",
      "outputs": [],
      "stateMutability": "nonpayable",
      "type": "function"
    },
    {
      "inputs": [],
      "name": "usdcToken",
      "outputs": [
        {
          "internalType": "contract IERC20",
          "name": "",
          "type": "address"
        }
      ],
      "stateMutability": "view",
      "type": "function"
    }
  ],
  "bytecode": "0x60e060405234801561000f575f5ffd5b506040516128e03803806128e0833981810160405281019061003191906104d4565b8373ffffffffffffffffffffffffffffffffffffffff1660808173ffffffffffffffffffffffffffffffffffffffff16815250505f8351116100a8576040517f08c379a000000000000000000000000000000000000000000000000000000000815260040161009f906105d4565b60405180910390fd5b5f82116100ea576040517f08c379a00000000000000000000000000000000000000000000000000000000081526004016100e190610662565b60405180910390fd5b5f811161012c576040517f08c379a0000000000000000000000000000000000000000000000000000000008152600401610123906106f0565b60405180910390fd5b5f5f90505b83518110156102b6575f73ffffffffffffffffffffffffffffffffffffffff168482815181106101645761016361070e565b5b602002602001015173ffffffffffffffffffffffffffffffffffffffff16036101c2576040517f08c379a00000000000000000000000000000000000000000000000000000000081526004016101b990610785565b60405180910390fd5b5f8482815181106101d6576101d561070e565b5b6020026020010151908060018154018082558091505060019003905f5260205f20015f9091909190916101000a81548173ffffffffffffffffffffffffffffffffffffffff021916908373ffffffffffffffffffffffffffffffffffffffff1602179055506001805f8684815181106102525761025161070e565b5b602002602001015173ffffffffffffffffffffffffffffffffffffffff1673ffffffffffffffffffffffffffffffffffffffff1681526020019081526020015f205f6101000a81548160ff0219169083151502179055508080600101915050610131565b508160a081815250508060c081815250505f600381905550600160048190555042600581905550505050506107a3565b5f604051905090565b5f5ffd5b5f5ffd5b5f73ffffffffffffffffffffffffffffffffffffffff82169050919050565b5f610320826102f7565b9050919050565b61033081610316565b811461033a575f5ffd5b50565b5f8151905061034b81610327565b92915050565b5f5ffd5b5f601f19601f8301169050919050565b7f4e487b71000000000000000000000000000000000000000000000000000000005f52604160045260245ffd5b61039b82610355565b810181811067ffffffffffffffff821117156103ba576103b9610365565b5b80604052505050565b5f6103cc6102e6565b90506103d88282610392565b919050565b5f67ffffffffffffffff8211156103f7576103f6610365565b5b602082029050602081019050919050565b5f5ffd5b5f61041e610419846103dd565b6103c3565b9050808382526020820190506020840283018581111561044157610440610408565b5b835b8181101561046a5780610456888261033d565b845260208401935050602081019050610443565b5050509392505050565b5f82601f83011261048857610487610351565b5b815161049884826020860161040c565b91505092915050565b5f819050919050565b6104b3816104a1565b81146104bd575f5ffd5b50565b5f815190506104ce816104aa565b92915050565b5f5f5f5f608085870312156104ec576104eb6102ef565b5b5f6104f98782880161033d565b945050602085015167ffffffffffffffff81111561051a576105196102f3565b5b61052687828801610474565b9350506040610537878288016104c0565b9250506060610548878288016104c0565b91505092959194509250565b5f82825260208201905092915050565b7f4d7573742068617665206174206c65617374206f6e65207061727469636970615f8201527f6e74000000000000000000000000000000000000000000000000000000000000602082015250565b5f6105be602283610554565b91506105c982610564565b604082019050919050565b5f6020820190508181035f8301526105eb816105b2565b9050919050565b7f5061796d656e7420616d6f756e74206d757374206265206772656174657220745f8201527f68616e2030000000000000000000000000000000000000000000000000000000602082015250565b5f61064c602583610554565b9150610657826105f2565b604082019050919050565b5f6020820190508181035f83015261067981610640565b9050919050565b7f5061796d656e74206672657175656e6379206d757374206265206772656174655f8201527f72207468616e2030000000000000000000000000000000000000000000000000602082015250565b5f6106da602883610554565b91506106e582610680565b604082019050919050565b5f6020820190508181035f830152610707816106ce565b9050919050565b7f4e487b71000000000000000000000000000000000000000000000000000000005f52603260045260245ffd5b7f496e76616c6964206164647265737300000000000000000000000000000000005f82015250565b5f61076f600f83610554565b915061077a8261073b565b602082019050919050565b5f6020820190508181035f83015261079c81610763565b9050919050565b60805160a05160c0516120db6108055f395f81816104ba0152818161080d015261107701525f8181610567015281816106b201526110b801525f8181610340015281816105290152818161087f0152818161099b015261153a01526120db5ff3fe608060405234801561000f575f5ffd5b5060043610610114575f3560e01c806360c42de6116100a0578063929066f51161006f578063929066f514610298578063c35905c6146102c8578063da1bf7c6146102e6578063dfafe10f14610304578063ed12e8ef1461032057610114565b806360c42de614610210578063668a20011461022e57806380da4bd11461024a5780638e5893151461027a57610114565b80632f884710116100e75780632f8847101461017c578063335e536c1461019a57806335c1d349146101b85780634e71d92d146101e85780635aa68ac0146101f257610114565b806311eac85514610118578063194e36f5146101365780631b9265b8146101545780632e94a9dc1461015e575b5f5ffd5b61012061033e565b60405161012d919061164f565b60405180910390f35b61013e610362565b60405161014b9190611688565b60405180910390f35b61015c6103a5565b005b6101666106ec565b60405161017391906116b9565b60405180910390f35b6101846106f2565b60405161019191906116b9565b60405180910390f35b6101a26106f8565b6040516101af91906116b9565b60405180910390f35b6101d260048036038101906101cd9190611700565b6106fe565b6040516101df9190611688565b60405180910390f35b6101f0610738565b005b6101fa610bf1565b60405161020791906117e2565b60405180910390f35b610218610c7b565b604051610225919061181c565b60405180910390f35b6102486004803603810190610243919061185f565b610d34565b005b610264600480360381019061025f919061185f565b611058565b604051610271919061181c565b60405180910390f35b610282611075565b60405161028f91906116b9565b60405180910390f35b6102b260048036038101906102ad919061185f565b611099565b6040516102bf919061181c565b60405180910390f35b6102d06110b6565b6040516102dd91906116b9565b60405180910390f35b6102ee6110da565b6040516102fb91906117e2565b60405180910390f35b61031e6004803603810190610319919061185f565b611346565b005b610328611537565b60405161033591906116b9565b60405180910390f35b7f000000000000000000000000000000000000000000000000000000000000000081565b5f5f600354815481106103785761037761188a565b5b905f5260205f20015f9054906101000a900473ffffffffffffffffffffffffffffffffffffffff16905090565b60015f3373ffffffffffffffffffffffffffffffffffffffff1673ffffffffffffffffffffffffffffffffffffffff1681526020019081526020015f205f9054906101000a900460ff1661042e576040517f08c379a000000000000000000000000000000000000000000000000000000000815260040161042590611911565b60405180910390fd5b60025f3373ffffffffffffffffffffffffffffffffffffffff1673ffffffffffffffffffffffffffffffffffffffff1681526020019081526020015f205f9054906101000a900460ff16156104b8576040517f08c379a00000000000000000000000000000000000000000000000000000000081526004016104af90611979565b60405180910390fd5b7f00000000000000000000000000000000000000000000000000000000000000006005546104e691906119c4565b4210610527576040517f08c379a000000000000000000000000000000000000000000000000000000000815260040161051e90611a67565b60405180910390fd5b7f000000000000000000000000000000000000000000000000000000000000000073ffffffffffffffffffffffffffffffffffffffff166323b872dd33307f00000000000000000000000000000000000000000000000000000000000000006040518463ffffffff1660e01b81526004016105a493929190611a85565b6020604051808303815f875af11580156105c0573d5f5f3e3d5ffd5b505050506040513d601f19601f820116820180604052508101906105e49190611ae4565b610623576040517f08c379a000000000000000000000000000000000000000000000000000000000815260040161061a90611b59565b60405180910390fd5b600160025f3373ffffffffffffffffffffffffffffffffffffffff1673ffffffffffffffffffffffffffffffffffffffff1681526020019081526020015f205f6101000a81548160ff0219169083151502179055503373ffffffffffffffffffffffffffffffffffffffff167f5677b5d4cf976ac32defbd95a6a5aaf0d1fee450a11fc26f3c11aae6e6c33d067f00000000000000000000000000000000000000000000000000000000000000006004546040516106e2929190611b77565b60405180910390a2565b60035481565b60045481565b60055481565b5f818154811061070c575f80fd5b905f5260205f20015f915054906101000a900473ffffffffffffffffffffffffffffffffffffffff1681565b60025f5f600354815481106107505761074f61188a565b5b905f5260205f20015f9054906101000a900473ffffffffffffffffffffffffffffffffffffffff1673ffffffffffffffffffffffffffffffffffffffff1673ffffffffffffffffffffffffffffffffffffffff1681526020019081526020015f205f9054906101000a900460ff166107fd576040517f08c379a00000000000000000000000000000000000000000000000000000000081526004016107f490611c0e565b60405180910390fd5b610805610c7b565b8061083d57507f000000000000000000000000000000000000000000000000000000000000000060055461083991906119c4565b4210155b61087c576040517f08c379a000000000000000000000000000000000000000000000000000000000815260040161087390611cc2565b60405180910390fd5b5f7f000000000000000000000000000000000000000000000000000000000000000073ffffffffffffffffffffffffffffffffffffffff166370a08231306040518263ffffffff1660e01b81526004016108d69190611688565b602060405180830381865afa1580156108f1573d5f5f3e3d5ffd5b505050506040513d601f19601f820116820180604052508101906109159190611cf4565b90505f8111610959576040517f08c379a000000000000000000000000000000000000000000000000000000000815260040161095090611d69565b60405180910390fd5b5f5f6003548154811061096f5761096e61188a565b5b905f5260205f20015f9054906101000a900473ffffffffffffffffffffffffffffffffffffffff1690507f000000000000000000000000000000000000000000000000000000000000000073ffffffffffffffffffffffffffffffffffffffff1663a9059cbb82846040518363ffffffff1660e01b81526004016109f4929190611d87565b6020604051808303815f875af1158015610a10573d5f5f3e3d5ffd5b505050506040513d601f19601f82011682018060405250810190610a349190611ae4565b610a73576040517f08c379a0000000000000000000000000000000000000000000000000000000008152600401610a6a90611df8565b60405180910390fd5b8073ffffffffffffffffffffffffffffffffffffffff167f4a928ee5d1397dcab0a17b6f9b1e4250d15c6bda472de38c65b38c38ff790d0c83600454604051610abd929190611b77565b60405180910390a25f5f90505b5f80549050811015610b71575f60025f5f8481548110610aed57610aec61188a565b5b905f5260205f20015f9054906101000a900473ffffffffffffffffffffffffffffffffffffffff1673ffffffffffffffffffffffffffffffffffffffff1673ffffffffffffffffffffffffffffffffffffffff1681526020019081526020015f205f6101000a81548160ff0219169083151502179055508080600101915050610aca565b505f805490506001600354610b8691906119c4565b610b909190611e43565b60038190555060045f815480929190610ba890611e73565b9190505550426005819055507f728ee55a18e527fe1a156c13b5a1599b975d8ef275d06cb935559ca5e008795d600454604051610be591906116b9565b60405180910390a15050565b60605f805480602002602001604051908101604052809291908181526020018280548015610c7157602002820191905f5260205f20905b815f9054906101000a900473ffffffffffffffffffffffffffffffffffffffff1673ffffffffffffffffffffffffffffffffffffffff1681526020019060010190808311610c28575b5050505050905090565b5f5f5f90505b5f80549050811015610d2b5760025f5f8381548110610ca357610ca261188a565b5b905f5260205f20015f9054906101000a900473ffffffffffffffffffffffffffffffffffffffff1673ffffffffffffffffffffffffffffffffffffffff1673ffffffffffffffffffffffffffffffffffffffff1681526020019081526020015f205f9054906101000a900460ff16610d1e575f915050610d31565b8080600101915050610c81565b50600190505b90565b60015f8273ffffffffffffffffffffffffffffffffffffffff1673ffffffffffffffffffffffffffffffffffffffff1681526020019081526020015f205f9054906101000a900460ff16610dbd576040517f08c379a0000000000000000000000000000000000000000000000000000000008152600401610db490611911565b60405180910390fd5b60025f8273ffffffffffffffffffffffffffffffffffffffff1673ffffffffffffffffffffffffffffffffffffffff1681526020019081526020015f205f9054906101000a900460ff1615610e47576040517f08c379a0000000000000000000000000000000000000000000000000000000008152600401610e3e90611f2a565b60405180910390fd5b5f5f90505b5f80549050811015610fbd578173ffffffffffffffffffffffffffffffffffffffff165f8281548110610e8257610e8161188a565b5b905f5260205f20015f9054906101000a900473ffffffffffffffffffffffffffffffffffffffff1673ffffffffffffffffffffffffffffffffffffffff1603610fb0575f60015f80549050610ed79190611f48565b81548110610ee857610ee761188a565b5b905f5260205f20015f9054906101000a900473ffffffffffffffffffffffffffffffffffffffff165f8281548110610f2357610f2261188a565b5b905f5260205f20015f6101000a81548173ffffffffffffffffffffffffffffffffffffffff021916908373ffffffffffffffffffffffffffffffffffffffff1602179055505f805480610f7957610f78611f7b565b5b600190038181905f5260205f20015f6101000a81549073ffffffffffffffffffffffffffffffffffffffff02191690559055610fbd565b8080600101915050610e4c565b505f60015f8373ffffffffffffffffffffffffffffffffffffffff1673ffffffffffffffffffffffffffffffffffffffff1681526020019081526020015f205f6101000a81548160ff0219169083151502179055508073ffffffffffffffffffffffffffffffffffffffff167f1a5e355a9a34d7eac1e439a6c610ba1fa72aa45f7645724ce5187fa19c3bd3fc60405160405180910390a250565b6002602052805f5260405f205f915054906101000a900460ff1681565b7f000000000000000000000000000000000000000000000000000000000000000081565b6001602052805f5260405f205f915054906101000a900460ff1681565b7f000000000000000000000000000000000000000000000000000000000000000081565b60605f5f8054905067ffffffffffffffff8111156110fb576110fa611fa8565b5b6040519080825280602002602001820160405280156111295781602001602082028036833780820191505090505b5090505f5f90505f5f90505b5f8054905081101561126d5760025f5f83815481106111575761115661188a565b5b905f5260205f20015f9054906101000a900473ffffffffffffffffffffffffffffffffffffffff1673ffffffffffffffffffffffffffffffffffffffff1673ffffffffffffffffffffffffffffffffffffffff1681526020019081526020015f205f9054906101000a900460ff16611260575f81815481106111dc576111db61188a565b5b905f5260205f20015f9054906101000a900473ffffffffffffffffffffffffffffffffffffffff168383815181106112175761121661188a565b5b602002602001019073ffffffffffffffffffffffffffffffffffffffff16908173ffffffffffffffffffffffffffffffffffffffff1681525050818061125c90611e73565b9250505b8080600101915050611135565b505f8167ffffffffffffffff81111561128957611288611fa8565b5b6040519080825280602002602001820160405280156112b75781602001602082028036833780820191505090505b5090505f5f90505b8281101561133c578381815181106112da576112d961188a565b5b60200260200101518282815181106112f5576112f461188a565b5b602002602001019073ffffffffffffffffffffffffffffffffffffffff16908173ffffffffffffffffffffffffffffffffffffffff168152505080806001019150506112bf565b5080935050505090565b5f73ffffffffffffffffffffffffffffffffffffffff168173ffffffffffffffffffffffffffffffffffffffff16036113b4576040517f08c379a00000000000000000000000000000000000000000000000000000000081526004016113ab9061201f565b60405180910390fd5b60015f8273ffffffffffffffffffffffffffffffffffffffff1673ffffffffffffffffffffffffffffffffffffffff1681526020019081526020015f205f9054906101000a900460ff161561143e576040517f08c379a000000000000000000000000000000000000000000000000000000000815260040161143590612087565b60405180910390fd5b5f81908060018154018082558091505060019003905f5260205f20015f9091909190916101000a81548173ffffffffffffffffffffffffffffffffffffffff021916908373ffffffffffffffffffffffffffffffffffffffff1602179055506001805f8373ffffffffffffffffffffffffffffffffffffffff1673ffffffffffffffffffffffffffffffffffffffff1681526020019081526020015f205f6101000a81548160ff0219169083151502179055508073ffffffffffffffffffffffffffffffffffffffff167f31d3ac54da09405b02d1de0ee0de648de637fbdc111123be0d7fc31f2a544c0b60405160405180910390a250565b5f7f000000000000000000000000000000000000000000000000000000000000000073ffffffffffffffffffffffffffffffffffffffff166370a08231306040518263ffffffff1660e01b81526004016115919190611688565b602060405180830381865afa1580156115ac573d5f5f3e3d5ffd5b505050506040513d601f19601f820116820180604052508101906115d09190611cf4565b905090565b5f73ffffffffffffffffffffffffffffffffffffffff82169050919050565b5f819050919050565b5f61161761161261160d846115d5565b6115f4565b6115d5565b9050919050565b5f611628826115fd565b9050919050565b5f6116398261161e565b9050919050565b6116498161162f565b82525050565b5f6020820190506116625f830184611640565b92915050565b5f611672826115d5565b9050919050565b61168281611668565b82525050565b5f60208201905061169b5f830184611679565b92915050565b5f819050919050565b6116b3816116a1565b82525050565b5f6020820190506116cc5f8301846116aa565b92915050565b5f5ffd5b6116df816116a1565b81146116e9575f5ffd5b50565b5f813590506116fa816116d6565b92915050565b5f60208284031215611715576117146116d2565b5b5f611722848285016116ec565b91505092915050565b5f81519050919050565b5f82825260208201905092915050565b5f819050602082019050919050565b61175d81611668565b82525050565b5f61176e8383611754565b60208301905092915050565b5f602082019050919050565b5f6117908261172b565b61179a8185611735565b93506117a583611745565b805f5b838110156117d55781516117bc8882611763565b97506117c78361177a565b9250506001810190506117a8565b5085935050505092915050565b5f6020820190508181035f8301526117fa8184611786565b905092915050565b5f8115159050919050565b61181681611802565b82525050565b5f60208201905061182f5f83018461180d565b92915050565b61183e81611668565b8114611848575f5ffd5b50565b5f8135905061185981611835565b92915050565b5f60208284031215611874576118736116d2565b5b5f6118818482850161184b565b91505092915050565b7f4e487b71000000000000000000000000000000000000000000000000000000005f52603260045260245ffd5b5f82825260208201905092915050565b7f4e6f742061207061727469636970616e740000000000000000000000000000005f82015250565b5f6118fb6011836118b7565b9150611906826118c7565b602082019050919050565b5f6020820190508181035f830152611928816118ef565b9050919050565b7f416c726561647920706169642074686973206379636c650000000000000000005f82015250565b5f6119636017836118b7565b915061196e8261192f565b602082019050919050565b5f6020820190508181035f83015261199081611957565b9050919050565b7f4e487b71000000000000000000000000000000000000000000000000000000005f52601160045260245ffd5b5f6119ce826116a1565b91506119d9836116a1565b92508282019050808211156119f1576119f0611997565b5b92915050565b7f5061796d656e742077696e646f7720666f722074686973206379636c652068615f8201527f7320657870697265640000000000000000000000000000000000000000000000602082015250565b5f611a516029836118b7565b9150611a5c826119f7565b604082019050919050565b5f6020820190508181035f830152611a7e81611a45565b9050919050565b5f606082019050611a985f830186611679565b611aa56020830185611679565b611ab260408301846116aa565b949350505050565b611ac381611802565b8114611acd575f5ffd5b50565b5f81519050611ade81611aba565b92915050565b5f60208284031215611af957611af86116d2565b5b5f611b0684828501611ad0565b91505092915050565b7f5061796d656e74207472616e73666572206661696c65640000000000000000005f82015250565b5f611b436017836118b7565b9150611b4e82611b0f565b602082019050919050565b5f6020820190508181035f830152611b7081611b37565b9050919050565b5f604082019050611b8a5f8301856116aa565b611b9760208301846116aa565b9392505050565b7f43757272656e7420726563697069656e74206861736e277420706169642079655f8201527f7400000000000000000000000000000000000000000000000000000000000000602082015250565b5f611bf86021836118b7565b9150611c0382611b9e565b604082019050919050565b5f6020820190508181035f830152611c2581611bec565b9050919050565b7f43616e6e6f7420636c61696d20796574202d206e6f742065766572796f6e65205f8201527f686173207061696420616e64207061796d656e742077696e646f77206861736e60208201527f2774206578706972656400000000000000000000000000000000000000000000604082015250565b5f611cac604a836118b7565b9150611cb782611c2c565b606082019050919050565b5f6020820190508181035f830152611cd981611ca0565b9050919050565b5f81519050611cee816116d6565b92915050565b5f60208284031215611d0957611d086116d2565b5b5f611d1684828501611ce0565b91505092915050565b7f4e6f2066756e647320746f20636c61696d0000000000000000000000000000005f82015250565b5f611d536011836118b7565b9150611d5e82611d1f565b602082019050919050565b5f6020820190508181035f830152611d8081611d47565b9050919050565b5f604082019050611d9a5f830185611679565b611da760208301846116aa565b9392505050565b7f436c61696d207472616e73666572206661696c656400000000000000000000005f82015250565b5f611de26015836118b7565b9150611ded82611dae565b602082019050919050565b5f6020820190508181035f830152611e0f81611dd6565b9050919050565b7f4e487b71000000000000000000000000000000000000000000000000000000005f52601260045260245ffd5b5f611e4d826116a1565b9150611e58836116a1565b925082611e6857611e67611e16565b5b828206905092915050565b5f611e7d826116a1565b91507fffffffffffffffffffffffffffffffffffffffffffffffffffffffffffffffff8203611eaf57611eae611997565b5b600182019050919050565b7f43616e6e6f742072656d6f7665207061727469636970616e742077686f2068615f8201527f7320706169640000000000000000000000000000000000000000000000000000602082015250565b5f611f146026836118b7565b9150611f1f82611eba565b604082019050919050565b5f6020820190508181035f830152611f4181611f08565b9050919050565b5f611f52826116a1565b9150611f5d836116a1565b9250828203905081811115611f7557611f74611997565b5b92915050565b7f4e487b71000000000000000000000000000000000000000000000000000000005f52603160045260245ffd5b7f4e487b71000000000000000000000000000000000000000000000000000000005f52604160045260245ffd5b7f496e76616c6964206164647265737300000000000000000000000000000000005f82015250565b5f612009600f836118b7565b915061201482611fd5565b602082019050919050565b5f6020820190508181035f83015261203681611ffd565b9050919050565b7f416c72656164792061207061727469636970616e7400000000000000000000005f82015250565b5f6120716015836118b7565b915061207c8261203d565b602082019050919050565b5f6020820190508181035f83015261209e81612065565b905091905056fea2646970667358221220ef74b494ab7ca8741b0e59a026ced8aa06fcaa24dba826cb6d939b8588c894e264736f6c634300081c0033",
  "linkReferences": {},
  "deployedLinkReferences": {},
  "immutableReferences": {
    "73": [
      {
        "length": 32,
        "start": 832
      },
      {
        "length": 32,
        "start": 1321
      },
      {
        "length": 32,
        "start": 2175
      },
      {
        "length": 32,
        "start": 2459
      },
      {
        "length": 32,
        "start": 5434
      }
    ],
    "75": [
      {
        "length": 32,
        "start": 1383
      },
      {
        "length": 32,
        "start": 1714
      },
      {
        "length": 32,
        "start": 4280
      }
    ],
    "77": [
      {
        "length": 32,
        "start": 1210
      },
      {
        "length": 32,
        "start": 2061
      },
      {
        "length": 32,
        "start": 4215
      }
    ]
  },
  "inputSourceName": "project/contracts/Tanda.sol",
  "buildInfoId": "solc-0_8_28-39ca51f0778c6b64ec71b066858b90c5bd69d814"
}