{
  "_format": "hh3-artifact-1",
  "contractName": "Tanda",
  "sourceName": "contracts/Tanda.sol",
  "abi": [
    {
      "inputs": [
        {
          "internalType": "address",
          "name": "_usdcToken",
          "type": "address"
        },
        {
          "internalType": "address[]",
          "name": "_initialParticipants",
          "type": "address[]"
        },
        {
          "internalType": "uint256",
          "name": "_paymentAmount",
          "type": "uint256"
        },
        {
          "internalType": "uint256",
          "name": "_paymentFrequency",
          "type": "uint256"
        }
      ],
      "stateMutability": "nonpayable",
      "type": "constructor"
    },
    {
      "anonymous": false,
      "inputs": [
        {
          "indexed": true,
          "internalType": "address",
          "name": "recipient",
          "type": "address"
        },
        {
          "indexed": false,
          "internalType": "uint256",
          "name": "amount",
          "type": "uint256"
        },
        {
          "indexed": false,
          "internalType": "uint256",
          "name": "cycle",
          "type": "uint256"
        }
      ],
      "name": "FundsClaimed",
      "type": "event"
    },
    {
      "anonymous": false,
      "inputs": [
        {
          "indexed": false,
          "internalType": "uint256",
          "name": "cycleNumber",
          "type": "uint256"
        }
      ],
      "name": "NewCycleStarted",
      "type": "event"
    },
    {
      "anonymous": false,
      "inputs": [
        {
          "indexed": true,
          "internalType": "address",
          "name": "participant",
          "type": "address"
        }
      ],
      "name": "ParticipantAdded",
      "type": "event"
    },
    {
      "anonymous": false,
      "inputs": [
        {
          "indexed": true,
          "internalType": "address",
          "name": "participant",
          "type": "address"
        }
      ],
      "name": "ParticipantRemoved",
      "type": "event"
    },
    {
      "anonymous": false,
      "inputs": [
        {
          "indexed": true,
          "internalType": "address",
          "name": "payer",
          "type": "address"
        },
        {
          "indexed": false,
          "internalType": "uint256",
          "name": "amount",
          "type": "uint256"
        },
        {
          "indexed": false,
          "internalType": "uint256",
          "name": "cycle",
          "type": "uint256"
        }
      ],
      "name": "PaymentReceived",
      "type": "event"
    },
    {
      "anonymous": false,
      "inputs": [
        {
          "indexed": true,
          "internalType": "address",
          "name": "participant",
          "type": "address"
        },
        {
          "indexed": false,
          "internalType": "bytes",
          "name": "proof",
          "type": "bytes"
        },
        {
          "indexed": false,
          "internalType": "bool",
          "name": "isValid",
          "type": "bool"
        }
      ],
      "name": "RelayProofVerified",
      "type": "event"
    },
    {
      "inputs": [
        {
          "internalType": "address",
          "name": "_participant",
          "type": "address"
        }
      ],
      "name": "addParticipant",
      "outputs": [],
      "stateMutability": "nonpayable",
      "type": "function"
    },
    {
      "inputs": [],
      "name": "allHavePaid",
      "outputs": [
        {
          "internalType": "bool",
          "name": "",
          "type": "bool"
        }
      ],
      "stateMutability": "view",
      "type": "function"
    },
    {
      "inputs": [],
      "name": "claim",
      "outputs": [],
      "stateMutability": "nonpayable",
      "type": "function"
    },
    {
      "inputs": [],
      "name": "currentRecipientIndex",
      "outputs": [
        {
          "internalType": "uint256",
          "name": "",
          "type": "uint256"
        }
      ],
      "stateMutability": "view",
      "type": "function"
    },
    {
      "inputs": [],
      "name": "cycleNumber",
      "outputs": [
        {
          "internalType": "uint256",
          "name": "",
          "type": "uint256"
        }
      ],
      "stateMutability": "view",
      "type": "function"
    },
    {
      "inputs": [],
      "name": "cycleStartTime",
      "outputs": [
        {
          "internalType": "uint256",
          "name": "",
          "type": "uint256"
        }
      ],
      "stateMutability": "view",
      "type": "function"
    },
    {
      "inputs": [],
      "name": "getCurrentRecipient",
      "outputs": [
        {
          "internalType": "address",
          "name": "",
          "type": "address"
        }
      ],
      "stateMutability": "view",
      "type": "function"
    },
    {
      "inputs": [],
      "name": "getParticipants",
      "outputs": [
        {
          "internalType": "address[]",
          "name": "",
          "type": "address[]"
        }
      ],
      "stateMutability": "view",
      "type": "function"
    },
    {
      "inputs": [],
      "name": "getUnpaidParticipants",
      "outputs": [
        {
          "internalType": "address[]",
          "name": "",
          "type": "address[]"
        }
      ],
      "stateMutability": "view",
      "type": "function"
    },
    {
      "inputs": [],
      "name": "getVaultBalance",
      "outputs": [
        {
          "internalType": "uint256",
          "name": "",
          "type": "uint256"
        }
      ],
      "stateMutability": "view",
      "type": "function"
    },
    {
      "inputs": [
        {
          "internalType": "address",
          "name": "",
          "type": "address"
        }
      ],
      "name": "hasPaidThisCycle",
      "outputs": [
        {
          "internalType": "bool",
          "name": "",
          "type": "bool"
        }
      ],
      "stateMutability": "view",
      "type": "function"
    },
    {
      "inputs": [
        {
          "internalType": "address",
          "name": "",
          "type": "address"
        }
      ],
      "name": "isParticipant",
      "outputs": [
        {
          "internalType": "bool",
          "name": "",
          "type": "bool"
        }
      ],
      "stateMutability": "view",
      "type": "function"
    },
    {
      "inputs": [
        {
          "internalType": "uint256",
          "name": "",
          "type": "uint256"
        }
      ],
      "name": "participants",
      "outputs": [
        {
          "internalType": "address",
          "name": "",
          "type": "address"
        }
      ],
      "stateMutability": "view",
      "type": "function"
    },
    {
      "inputs": [],
      "name": "pay",
      "outputs": [],
      "stateMutability": "nonpayable",
      "type": "function"
    },
    {
      "inputs": [
        {
          "internalType": "address",
          "name": "payer",
          "type": "address"
        }
      ],
      "name": "payAfterPermit2",
      "outputs": [],
      "stateMutability": "nonpayable",
      "type": "function"
    },
    {
      "inputs": [],
      "name": "paymentAmount",
      "outputs": [
        {
          "internalType": "uint256",
          "name": "",
          "type": "uint256"
        }
      ],
      "stateMutability": "view",
      "type": "function"
    },
    {
      "inputs": [],
      "name": "paymentFrequency",
      "outputs": [
        {
          "internalType": "uint256",
          "name": "",
          "type": "uint256"
        }
      ],
      "stateMutability": "view",
      "type": "function"
    },
    {
      "inputs": [
        {
          "internalType": "address",
          "name": "_participant",
          "type": "address"
        }
      ],
      "name": "removeParticipant",
      "outputs": [],
      "stateMutability": "nonpayable",
      "type": "function"
    },
    {
      "inputs": [],
      "name": "usdcToken",
      "outputs": [
        {
          "internalType": "contract IERC20",
          "name": "",
          "type": "address"
        }
      ],
      "stateMutability": "view",
      "type": "function"
    },
    {
      "inputs": [
        {
          "internalType": "address",
          "name": "participant",
          "type": "address"
        },
        {
          "internalType": "bytes",
          "name": "proof",
          "type": "bytes"
        }
      ],
      "name": "verifyAndEmitRelayProof",
      "outputs": [],
      "stateMutability": "nonpayable",
      "type": "function"
    },
    {
      "inputs": [
        {
          "internalType": "bytes",
          "name": "proof",
          "type": "bytes"
        }
      ],
      "name": "verifyRelayProof",
      "outputs": [
        {
          "internalType": "bool",
          "name": "",
          "type": "bool"
        }
      ],
      "stateMutability": "pure",
      "type": "function"
    }
  ],
  "bytecode": "0x60e060405234801561000f575f5ffd5b50604051612dba380380612dba833981810160405281019061003191906104d4565b8373ffffffffffffffffffffffffffffffffffffffff1660808173ffffffffffffffffffffffffffffffffffffffff16815250505f8351116100a8576040517f08c379a000000000000000000000000000000000000000000000000000000000815260040161009f906105d4565b60405180910390fd5b5f82116100ea576040517f08c379a00000000000000000000000000000000000000000000000000000000081526004016100e190610662565b60405180910390fd5b5f811161012c576040517f08c379a0000000000000000000000000000000000000000000000000000000008152600401610123906106f0565b60405180910390fd5b5f5f90505b83518110156102b6575f73ffffffffffffffffffffffffffffffffffffffff168482815181106101645761016361070e565b5b602002602001015173ffffffffffffffffffffffffffffffffffffffff16036101c2576040517f08c379a00000000000000000000000000000000000000000000000000000000081526004016101b990610785565b60405180910390fd5b5f8482815181106101d6576101d561070e565b5b6020026020010151908060018154018082558091505060019003905f5260205f20015f9091909190916101000a81548173ffffffffffffffffffffffffffffffffffffffff021916908373ffffffffffffffffffffffffffffffffffffffff1602179055506001805f8684815181106102525761025161070e565b5b602002602001015173ffffffffffffffffffffffffffffffffffffffff1673ffffffffffffffffffffffffffffffffffffffff1681526020019081526020015f205f6101000a81548160ff0219169083151502179055508080600101915050610131565b508160a081815250508060c081815250505f600381905550600160048190555042600581905550505050506107a3565b5f604051905090565b5f5ffd5b5f5ffd5b5f73ffffffffffffffffffffffffffffffffffffffff82169050919050565b5f610320826102f7565b9050919050565b61033081610316565b811461033a575f5ffd5b50565b5f8151905061034b81610327565b92915050565b5f5ffd5b5f601f19601f8301169050919050565b7f4e487b71000000000000000000000000000000000000000000000000000000005f52604160045260245ffd5b61039b82610355565b810181811067ffffffffffffffff821117156103ba576103b9610365565b5b80604052505050565b5f6103cc6102e6565b90506103d88282610392565b919050565b5f67ffffffffffffffff8211156103f7576103f6610365565b5b602082029050602081019050919050565b5f5ffd5b5f61041e610419846103dd565b6103c3565b9050808382526020820190506020840283018581111561044157610440610408565b5b835b8181101561046a5780610456888261033d565b845260208401935050602081019050610443565b5050509392505050565b5f82601f83011261048857610487610351565b5b815161049884826020860161040c565b91505092915050565b5f819050919050565b6104b3816104a1565b81146104bd575f5ffd5b50565b5f815190506104ce816104aa565b92915050565b5f5f5f5f608085870312156104ec576104eb6102ef565b5b5f6104f98782880161033d565b945050602085015167ffffffffffffffff81111561051a576105196102f3565b5b61052687828801610474565b9350506040610537878288016104c0565b9250506060610548878288016104c0565b91505092959194509250565b5f82825260208201905092915050565b7f4d7573742068617665206174206c65617374206f6e65207061727469636970615f8201527f6e74000000000000000000000000000000000000000000000000000000000000602082015250565b5f6105be602283610554565b91506105c982610564565b604082019050919050565b5f6020820190508181035f8301526105eb816105b2565b9050919050565b7f5061796d656e7420616d6f756e74206d757374206265206772656174657220745f8201527f68616e2030000000000000000000000000000000000000000000000000000000602082015250565b5f61064c602583610554565b9150610657826105f2565b604082019050919050565b5f6020820190508181035f83015261067981610640565b9050919050565b7f5061796d656e74206672657175656e6379206d757374206265206772656174655f8201527f72207468616e2030000000000000000000000000000000000000000000000000602082015250565b5f6106da602883610554565b91506106e582610680565b604082019050919050565b5f6020820190508181035f830152610707816106ce565b9050919050565b7f4e487b71000000000000000000000000000000000000000000000000000000005f52603260045260245ffd5b7f496e76616c6964206164647265737300000000000000000000000000000000005f82015250565b5f61076f600f83610554565b915061077a8261073b565b602082019050919050565b5f6020820190508181035f83015261079c81610763565b9050919050565b60805160a05160c0516125a061081a5f395f81816105430152818161088a01526113f501525f81816105f00152818161073b0152818161099401528181610a84015261143601525f81816103c9015281816105b2015281816108fa01528181610b0f01528181610c2b01526118fc01526125a05ff3fe608060405234801561000f575f5ffd5b5060043610610135575f3560e01c806360c42de6116100b6578063929066f51161007a578063929066f5146102f1578063c35905c614610321578063c6eab3d41461033f578063da1bf7c61461036f578063dfafe10f1461038d578063ed12e8ef146103a957610135565b806360c42de61461024d578063668a20011461026b5780637c56cc031461028757806380da4bd1146102a35780638e589315146102d357610135565b80632f884710116100fd5780632f884710146101b9578063335e536c146101d757806335c1d349146101f55780634e71d92d146102255780635aa68ac01461022f57610135565b806311eac85514610139578063194e36f5146101575780631b9265b8146101755780631c9e863c1461017f5780632e94a9dc1461019b575b5f5ffd5b6101416103c7565b60405161014e9190611a11565b60405180910390f35b61015f6103eb565b60405161016c9190611a4a565b60405180910390f35b61017d61042e565b005b61019960048036038101906101949190611a95565b610775565b005b6101a3610ac0565b6040516101b09190611ad8565b60405180910390f35b6101c1610ac6565b6040516101ce9190611ad8565b60405180910390f35b6101df610acc565b6040516101ec9190611ad8565b60405180910390f35b61020f600480360381019061020a9190611b1b565b610ad2565b60405161021c9190611a4a565b60405180910390f35b61022d610b0c565b005b610237610e81565b6040516102449190611bfd565b60405180910390f35b610255610f0b565b6040516102629190611c37565b60405180910390f35b61028560048036038101906102809190611a95565b610fc4565b005b6102a1600480360381019061029c9190611cb1565b6112e8565b005b6102bd60048036038101906102b89190611a95565b6113d6565b6040516102ca9190611c37565b60405180910390f35b6102db6113f3565b6040516102e89190611ad8565b60405180910390f35b61030b60048036038101906103069190611a95565b611417565b6040516103189190611c37565b60405180910390f35b610329611434565b6040516103369190611ad8565b60405180910390f35b61035960048036038101906103549190611d0e565b611458565b6040516103669190611c37565b60405180910390f35b61037761149c565b6040516103849190611bfd565b60405180910390f35b6103a760048036038101906103a29190611a95565b611708565b005b6103b16118f9565b6040516103be9190611ad8565b60405180910390f35b7f000000000000000000000000000000000000000000000000000000000000000081565b5f5f6003548154811061040157610400611d59565b5b905f5260205f20015f9054906101000a900473ffffffffffffffffffffffffffffffffffffffff16905090565b60015f3373ffffffffffffffffffffffffffffffffffffffff1673ffffffffffffffffffffffffffffffffffffffff1681526020019081526020015f205f9054906101000a900460ff166104b7576040517f08c379a00000000000000000000000000000000000000000000000000000000081526004016104ae90611de0565b60405180910390fd5b60025f3373ffffffffffffffffffffffffffffffffffffffff1673ffffffffffffffffffffffffffffffffffffffff1681526020019081526020015f205f9054906101000a900460ff1615610541576040517f08c379a000000000000000000000000000000000000000000000000000000000815260040161053890611e48565b60405180910390fd5b7f000000000000000000000000000000000000000000000000000000000000000060055461056f9190611e93565b42106105b0576040517f08c379a00000000000000000000000000000000000000000000000000000000081526004016105a790611f36565b60405180910390fd5b7f000000000000000000000000000000000000000000000000000000000000000073ffffffffffffffffffffffffffffffffffffffff166323b872dd33307f00000000000000000000000000000000000000000000000000000000000000006040518463ffffffff1660e01b815260040161062d93929190611f54565b6020604051808303815f875af1158015610649573d5f5f3e3d5ffd5b505050506040513d601f19601f8201168201806040525081019061066d9190611fb3565b6106ac576040517f08c379a00000000000000000000000000000000000000000000000000000000081526004016106a390612028565b60405180910390fd5b600160025f3373ffffffffffffffffffffffffffffffffffffffff1673ffffffffffffffffffffffffffffffffffffffff1681526020019081526020015f205f6101000a81548160ff0219169083151502179055503373ffffffffffffffffffffffffffffffffffffffff167f5677b5d4cf976ac32defbd95a6a5aaf0d1fee450a11fc26f3c11aae6e6c33d067f000000000000000000000000000000000000000000000000000000000000000060045460405161076b929190612046565b60405180910390a2565b60015f8273ffffffffffffffffffffffffffffffffffffffff1673ffffffffffffffffffffffffffffffffffffffff1681526020019081526020015f205f9054906101000a900460ff166107fe576040517f08c379a00000000000000000000000000000000000000000000000000000000081526004016107f590611de0565b60405180910390fd5b60025f8273ffffffffffffffffffffffffffffffffffffffff1673ffffffffffffffffffffffffffffffffffffffff1681526020019081526020015f205f9054906101000a900460ff1615610888576040517f08c379a000000000000000000000000000000000000000000000000000000000815260040161087f90611e48565b60405180910390fd5b7f00000000000000000000000000000000000000000000000000000000000000006005546108b69190611e93565b42106108f7576040517f08c379a00000000000000000000000000000000000000000000000000000000081526004016108ee90611f36565b60405180910390fd5b5f7f000000000000000000000000000000000000000000000000000000000000000073ffffffffffffffffffffffffffffffffffffffff166370a08231306040518263ffffffff1660e01b81526004016109519190611a4a565b602060405180830381865afa15801561096c573d5f5f3e3d5ffd5b505050506040513d601f19601f820116820180604052508101906109909190612081565b90507f00000000000000000000000000000000000000000000000000000000000000008110156109f5576040517f08c379a00000000000000000000000000000000000000000000000000000000081526004016109ec906120f6565b60405180910390fd5b600160025f8473ffffffffffffffffffffffffffffffffffffffff1673ffffffffffffffffffffffffffffffffffffffff1681526020019081526020015f205f6101000a81548160ff0219169083151502179055508173ffffffffffffffffffffffffffffffffffffffff167f5677b5d4cf976ac32defbd95a6a5aaf0d1fee450a11fc26f3c11aae6e6c33d067f0000000000000000000000000000000000000000000000000000000000000000600454604051610ab4929190612046565b60405180910390a25050565b60035481565b60045481565b60055481565b5f8181548110610ae0575f80fd5b905f5260205f20015f915054906101000a900473ffffffffffffffffffffffffffffffffffffffff1681565b5f7f000000000000000000000000000000000000000000000000000000000000000073ffffffffffffffffffffffffffffffffffffffff166370a08231306040518263ffffffff1660e01b8152600401610b669190611a4a565b602060405180830381865afa158015610b81573d5f5f3e3d5ffd5b505050506040513d601f19601f82011682018060405250810190610ba59190612081565b90505f8111610be9576040517f08c379a0000000000000000000000000000000000000000000000000000000008152600401610be09061215e565b60405180910390fd5b5f5f60035481548110610bff57610bfe611d59565b5b905f5260205f20015f9054906101000a900473ffffffffffffffffffffffffffffffffffffffff1690507f000000000000000000000000000000000000000000000000000000000000000073ffffffffffffffffffffffffffffffffffffffff1663a9059cbb82846040518363ffffffff1660e01b8152600401610c8492919061217c565b6020604051808303815f875af1158015610ca0573d5f5f3e3d5ffd5b505050506040513d601f19601f82011682018060405250810190610cc49190611fb3565b610d03576040517f08c379a0000000000000000000000000000000000000000000000000000000008152600401610cfa906121ed565b60405180910390fd5b8073ffffffffffffffffffffffffffffffffffffffff167f4a928ee5d1397dcab0a17b6f9b1e4250d15c6bda472de38c65b38c38ff790d0c83600454604051610d4d929190612046565b60405180910390a25f5f90505b5f80549050811015610e01575f60025f5f8481548110610d7d57610d7c611d59565b5b905f5260205f20015f9054906101000a900473ffffffffffffffffffffffffffffffffffffffff1673ffffffffffffffffffffffffffffffffffffffff1673ffffffffffffffffffffffffffffffffffffffff1681526020019081526020015f205f6101000a81548160ff0219169083151502179055508080600101915050610d5a565b505f805490506001600354610e169190611e93565b610e209190612238565b60038190555060045f815480929190610e3890612268565b9190505550426005819055507f728ee55a18e527fe1a156c13b5a1599b975d8ef275d06cb935559ca5e008795d600454604051610e759190611ad8565b60405180910390a15050565b60605f805480602002602001604051908101604052809291908181526020018280548015610f0157602002820191905f5260205f20905b815f9054906101000a900473ffffffffffffffffffffffffffffffffffffffff1673ffffffffffffffffffffffffffffffffffffffff1681526020019060010190808311610eb8575b5050505050905090565b5f5f5f90505b5f80549050811015610fbb5760025f5f8381548110610f3357610f32611d59565b5b905f5260205f20015f9054906101000a900473ffffffffffffffffffffffffffffffffffffffff1673ffffffffffffffffffffffffffffffffffffffff1673ffffffffffffffffffffffffffffffffffffffff1681526020019081526020015f205f9054906101000a900460ff16610fae575f915050610fc1565b8080600101915050610f11565b50600190505b90565b60015f8273ffffffffffffffffffffffffffffffffffffffff1673ffffffffffffffffffffffffffffffffffffffff1681526020019081526020015f205f9054906101000a900460ff1661104d576040517f08c379a000000000000000000000000000000000000000000000000000000000815260040161104490611de0565b60405180910390fd5b60025f8273ffffffffffffffffffffffffffffffffffffffff1673ffffffffffffffffffffffffffffffffffffffff1681526020019081526020015f205f9054906101000a900460ff16156110d7576040517f08c379a00000000000000000000000000000000000000000000000000000000081526004016110ce9061231f565b60405180910390fd5b5f5f90505b5f8054905081101561124d578173ffffffffffffffffffffffffffffffffffffffff165f828154811061111257611111611d59565b5b905f5260205f20015f9054906101000a900473ffffffffffffffffffffffffffffffffffffffff1673ffffffffffffffffffffffffffffffffffffffff1603611240575f60015f80549050611167919061233d565b8154811061117857611177611d59565b5b905f5260205f20015f9054906101000a900473ffffffffffffffffffffffffffffffffffffffff165f82815481106111b3576111b2611d59565b5b905f5260205f20015f6101000a81548173ffffffffffffffffffffffffffffffffffffffff021916908373ffffffffffffffffffffffffffffffffffffffff1602179055505f80548061120957611208612370565b5b600190038181905f5260205f20015f6101000a81549073ffffffffffffffffffffffffffffffffffffffff0219169055905561124d565b80806001019150506110dc565b505f60015f8373ffffffffffffffffffffffffffffffffffffffff1673ffffffffffffffffffffffffffffffffffffffff1681526020019081526020015f205f6101000a81548160ff0219169083151502179055508073ffffffffffffffffffffffffffffffffffffffff167f1a5e355a9a34d7eac1e439a6c610ba1fa72aa45f7645724ce5187fa19c3bd3fc60405160405180910390a250565b60015f8473ffffffffffffffffffffffffffffffffffffffff1673ffffffffffffffffffffffffffffffffffffffff1681526020019081526020015f205f9054906101000a900460ff16611371576040517f08c379a000000000000000000000000000000000000000000000000000000000815260040161136890611de0565b60405180910390fd5b5f61137c8383611458565b90508373ffffffffffffffffffffffffffffffffffffffff167f1d28fb44313108e08c49eb7ab68e25b581410c52fab56e9868732b216b2b22aa8484846040516113c8939291906123f7565b60405180910390a250505050565b6002602052805f5260405f205f915054906101000a900460ff1681565b7f000000000000000000000000000000000000000000000000000000000000000081565b6001602052805f5260405f205f915054906101000a900460ff1681565b7f000000000000000000000000000000000000000000000000000000000000000081565b5f7fc5d2460186f7233c927e7db2dcc703c0e500b653ca82273b7bfad8045d85a470838360405161148a929190612455565b60405180910390201415905092915050565b60605f5f8054905067ffffffffffffffff8111156114bd576114bc61246d565b5b6040519080825280602002602001820160405280156114eb5781602001602082028036833780820191505090505b5090505f5f90505f5f90505b5f8054905081101561162f5760025f5f838154811061151957611518611d59565b5b905f5260205f20015f9054906101000a900473ffffffffffffffffffffffffffffffffffffffff1673ffffffffffffffffffffffffffffffffffffffff1673ffffffffffffffffffffffffffffffffffffffff1681526020019081526020015f205f9054906101000a900460ff16611622575f818154811061159e5761159d611d59565b5b905f5260205f20015f9054906101000a900473ffffffffffffffffffffffffffffffffffffffff168383815181106115d9576115d8611d59565b5b602002602001019073ffffffffffffffffffffffffffffffffffffffff16908173ffffffffffffffffffffffffffffffffffffffff1681525050818061161e90612268565b9250505b80806001019150506114f7565b505f8167ffffffffffffffff81111561164b5761164a61246d565b5b6040519080825280602002602001820160405280156116795781602001602082028036833780820191505090505b5090505f5f90505b828110156116fe5783818151811061169c5761169b611d59565b5b60200260200101518282815181106116b7576116b6611d59565b5b602002602001019073ffffffffffffffffffffffffffffffffffffffff16908173ffffffffffffffffffffffffffffffffffffffff16815250508080600101915050611681565b5080935050505090565b5f73ffffffffffffffffffffffffffffffffffffffff168173ffffffffffffffffffffffffffffffffffffffff1603611776576040517f08c379a000000000000000000000000000000000000000000000000000000000815260040161176d906124e4565b60405180910390fd5b60015f8273ffffffffffffffffffffffffffffffffffffffff1673ffffffffffffffffffffffffffffffffffffffff1681526020019081526020015f205f9054906101000a900460ff1615611800576040517f08c379a00000000000000000000000000000000000000000000000000000000081526004016117f79061254c565b60405180910390fd5b5f81908060018154018082558091505060019003905f5260205f20015f9091909190916101000a81548173ffffffffffffffffffffffffffffffffffffffff021916908373ffffffffffffffffffffffffffffffffffffffff1602179055506001805f8373ffffffffffffffffffffffffffffffffffffffff1673ffffffffffffffffffffffffffffffffffffffff1681526020019081526020015f205f6101000a81548160ff0219169083151502179055508073ffffffffffffffffffffffffffffffffffffffff167f31d3ac54da09405b02d1de0ee0de648de637fbdc111123be0d7fc31f2a544c0b60405160405180910390a250565b5f7f000000000000000000000000000000000000000000000000000000000000000073ffffffffffffffffffffffffffffffffffffffff166370a08231306040518263ffffffff1660e01b81526004016119539190611a4a565b602060405180830381865afa15801561196e573d5f5f3e3d5ffd5b505050506040513d601f19601f820116820180604052508101906119929190612081565b905090565b5f73ffffffffffffffffffffffffffffffffffffffff82169050919050565b5f819050919050565b5f6119d96119d46119cf84611997565b6119b6565b611997565b9050919050565b5f6119ea826119bf565b9050919050565b5f6119fb826119e0565b9050919050565b611a0b816119f1565b82525050565b5f602082019050611a245f830184611a02565b92915050565b5f611a3482611997565b9050919050565b611a4481611a2a565b82525050565b5f602082019050611a5d5f830184611a3b565b92915050565b5f5ffd5b5f5ffd5b611a7481611a2a565b8114611a7e575f5ffd5b50565b5f81359050611a8f81611a6b565b92915050565b5f60208284031215611aaa57611aa9611a63565b5b5f611ab784828501611a81565b91505092915050565b5f819050919050565b611ad281611ac0565b82525050565b5f602082019050611aeb5f830184611ac9565b92915050565b611afa81611ac0565b8114611b04575f5ffd5b50565b5f81359050611b1581611af1565b92915050565b5f60208284031215611b3057611b2f611a63565b5b5f611b3d84828501611b07565b91505092915050565b5f81519050919050565b5f82825260208201905092915050565b5f819050602082019050919050565b611b7881611a2a565b82525050565b5f611b898383611b6f565b60208301905092915050565b5f602082019050919050565b5f611bab82611b46565b611bb58185611b50565b9350611bc083611b60565b805f5b83811015611bf0578151611bd78882611b7e565b9750611be283611b95565b925050600181019050611bc3565b5085935050505092915050565b5f6020820190508181035f830152611c158184611ba1565b905092915050565b5f8115159050919050565b611c3181611c1d565b82525050565b5f602082019050611c4a5f830184611c28565b92915050565b5f5ffd5b5f5ffd5b5f5ffd5b5f5f83601f840112611c7157611c70611c50565b5b8235905067ffffffffffffffff811115611c8e57611c8d611c54565b5b602083019150836001820283011115611caa57611ca9611c58565b5b9250929050565b5f5f5f60408486031215611cc857611cc7611a63565b5b5f611cd586828701611a81565b935050602084013567ffffffffffffffff811115611cf657611cf5611a67565b5b611d0286828701611c5c565b92509250509250925092565b5f5f60208385031215611d2457611d23611a63565b5b5f83013567ffffffffffffffff811115611d4157611d40611a67565b5b611d4d85828601611c5c565b92509250509250929050565b7f4e487b71000000000000000000000000000000000000000000000000000000005f52603260045260245ffd5b5f82825260208201905092915050565b7f4e6f742061207061727469636970616e740000000000000000000000000000005f82015250565b5f611dca601183611d86565b9150611dd582611d96565b602082019050919050565b5f6020820190508181035f830152611df781611dbe565b9050919050565b7f416c726561647920706169642074686973206379636c650000000000000000005f82015250565b5f611e32601783611d86565b9150611e3d82611dfe565b602082019050919050565b5f6020820190508181035f830152611e5f81611e26565b9050919050565b7f4e487b71000000000000000000000000000000000000000000000000000000005f52601160045260245ffd5b5f611e9d82611ac0565b9150611ea883611ac0565b9250828201905080821115611ec057611ebf611e66565b5b92915050565b7f5061796d656e742077696e646f7720666f722074686973206379636c652068615f8201527f7320657870697265640000000000000000000000000000000000000000000000602082015250565b5f611f20602983611d86565b9150611f2b82611ec6565b604082019050919050565b5f6020820190508181035f830152611f4d81611f14565b9050919050565b5f606082019050611f675f830186611a3b565b611f746020830185611a3b565b611f816040830184611ac9565b949350505050565b611f9281611c1d565b8114611f9c575f5ffd5b50565b5f81519050611fad81611f89565b92915050565b5f60208284031215611fc857611fc7611a63565b5b5f611fd584828501611f9f565b91505092915050565b7f5061796d656e74207472616e73666572206661696c65640000000000000000005f82015250565b5f612012601783611d86565b915061201d82611fde565b602082019050919050565b5f6020820190508181035f83015261203f81612006565b9050919050565b5f6040820190506120595f830185611ac9565b6120666020830184611ac9565b9392505050565b5f8151905061207b81611af1565b92915050565b5f6020828403121561209657612095611a63565b5b5f6120a38482850161206d565b91505092915050565b7f496e73756666696369656e74207061796d656e742072656365697665640000005f82015250565b5f6120e0601d83611d86565b91506120eb826120ac565b602082019050919050565b5f6020820190508181035f83015261210d816120d4565b9050919050565b7f4e6f2066756e647320746f20636c61696d0000000000000000000000000000005f82015250565b5f612148601183611d86565b915061215382612114565b602082019050919050565b5f6020820190508181035f8301526121758161213c565b9050919050565b5f60408201905061218f5f830185611a3b565b61219c6020830184611ac9565b9392505050565b7f436c61696d207472616e73666572206661696c656400000000000000000000005f82015250565b5f6121d7601583611d86565b91506121e2826121a3565b602082019050919050565b5f6020820190508181035f830152612204816121cb565b9050919050565b7f4e487b71000000000000000000000000000000000000000000000000000000005f52601260045260245ffd5b5f61224282611ac0565b915061224d83611ac0565b92508261225d5761225c61220b565b5b828206905092915050565b5f61227282611ac0565b91507fffffffffffffffffffffffffffffffffffffffffffffffffffffffffffffffff82036122a4576122a3611e66565b5b600182019050919050565b7f43616e6e6f742072656d6f7665207061727469636970616e742077686f2068615f8201527f7320706169640000000000000000000000000000000000000000000000000000602082015250565b5f612309602683611d86565b9150612314826122af565b604082019050919050565b5f6020820190508181035f830152612336816122fd565b9050919050565b5f61234782611ac0565b915061235283611ac0565b925082820390508181111561236a57612369611e66565b5b92915050565b7f4e487b71000000000000000000000000000000000000000000000000000000005f52603160045260245ffd5b5f82825260208201905092915050565b828183375f83830152505050565b5f601f19601f8301169050919050565b5f6123d6838561239d565b93506123e38385846123ad565b6123ec836123bb565b840190509392505050565b5f6040820190508181035f8301526124108185876123cb565b905061241f6020830184611c28565b949350505050565b5f81905092915050565b5f61243c8385612427565b93506124498385846123ad565b82840190509392505050565b5f612461828486612431565b91508190509392505050565b7f4e487b71000000000000000000000000000000000000000000000000000000005f52604160045260245ffd5b7f496e76616c6964206164647265737300000000000000000000000000000000005f82015250565b5f6124ce600f83611d86565b91506124d98261249a565b602082019050919050565b5f6020820190508181035f8301526124fb816124c2565b9050919050565b7f416c72656164792061207061727469636970616e7400000000000000000000005f82015250565b5f612536601583611d86565b915061254182612502565b602082019050919050565b5f6020820190508181035f8301526125638161252a565b905091905056fea2646970667358221220992217319dc591e6862af4cdfe41e9c3265a0ca0fa23a7e595fcb8ef9014e15664736f6c634300081c0033",
  "linkReferences": {},
  "deployedLinkReferences": {},
  "immutableReferences": {
    "32": [
      {
        "length": 32,
        "start": 969
      },
      {
        "length": 32,
        "start": 1458
      },
      {
        "length": 32,
        "start": 2298
      },
      {
        "length": 32,
        "start": 2831
      },
      {
        "length": 32,
        "start": 3115
      },
      {
        "length": 32,
        "start": 6396
      }
    ],
    "34": [
      {
        "length": 32,
        "start": 1520
      },
      {
        "length": 32,
        "start": 1851
      },
      {
        "length": 32,
        "start": 2452
      },
      {
        "length": 32,
        "start": 2692
      },
      {
        "length": 32,
        "start": 5174
      }
    ],
    "36": [
      {
        "length": 32,
        "start": 1347
      },
      {
        "length": 32,
        "start": 2186
      },
      {
        "length": 32,
        "start": 5109
      }
    ]
  },
  "inputSourceName": "project/contracts/Tanda.sol",
  "buildInfoId": "solc-0_8_28-02acc2e3692841b67e29a7cb30c5a77f82bd5f2c"
}